:020000040800F2
:10000000300E0020450100088D1C0008851C0008EA
:1000100051010008530100085501000800000000CC
:10002000000000000000000000000000EF1D0008BC
:100030005901000800000000C91C0008F11D00085B
:100040005F0100085F0100085F0100085F01000810
:100050005F0100085F0100085F0100085F01000800
:100060005F0100085F0100085F0100085F010008F0
:100070005F0100085F0100085F0100085F010008E0
:100080005F0100085F0100085F0100085F010008D0
:100090005F0100085F0100085F0100085F010008C0
:1000A0005F0100085F0100085F0100085F010008B0
:1000B0005F0100085F0100085F0100085F010008A0
:1000C0005F0100085F0100085F0100085F01000890
:1000D0005F0100085F0100085F0100085F01000880
:1000E0005F0100085F0100085F0100085F01000870
:1000F0005F0100085F0100085F0100085F01000860
:100100005F0100085F0100085F0100085F0100084F
:100110005F010008611E00085F0100085F01000820
:100120005F0100085F0100085F0100085F0100082F
:10013000DFF80CD000F03AFA00480047C130000860
:10014000300E00200648804706480047FEE7FEE7DD
:10015000FEE7FEE7FEE7FEE7FEE7FEE7FEE7FEE777
:10016000091E000831010008202A04DB203A21FA88
:1001700002F00021704721FA02F3D040C2F12002C0
:100180009140084319467047D2B201E000F8012BB4
:10019000491EFBD270470022F6E710B513460A4607
:1001A00004461946FFF7F0FF204610BD30B50B4658
:1001B000014600202022012409E021FA02F59D4297
:1001C00005D303FA02F5491B04FA02F52844151E6B
:1001D000A2F10102F1DC30BD2DE9F05F05460020FF
:1001E00092469B4688460646814640241BE02846A8
:1001F000414647462246FFF7B7FF53465A46C01AC4
:10020000914110D311461846224600F0E1F92D1A0B
:1002100067EB01084F4622460120002100F0D8F983
:1002200017EB00094E41201EA4F10104DFDC484613
:1002300031462A464346BDE8F09F2DE9FE4F8046F1
:1002400081EA0300C00F0C46009021F0004123F02A
:100250000045B8EB0200A94105D240462146904630
:100260001C460B46024623F00040104347D0270DA2
:10027000C7F30A00C3F30A510290401A01904028C4
:100280006BDAC3F3130040F4801B0098924620B150
:100290000023D2EB030A63EB0B0B01985946C0F124
:1002A0004002504600F094F906460D465046594625
:1002B000019A00F09CF910EB08006141002487EAE4
:1002C000115284EAE7731A4340D0009A62B3019A4C
:1002D000012A4FEA075215DC001B61EB02014FF0C7
:1002E000004202EA0752CDE90042001C41F58011AC
:1002F00032462B4600F09CF903B0BDE8F08F404633
:100300002146F9E7001B61EB0201001C41F5801357
:1003100000185B412018A2F5001747EB030140EAE3
:10032000D570B6196D4111E06D084FEA360645EA01
:10033000C0754FEA0752001B61EB0201001C41F53A
:10034000801149084FEA30000019514132462B46CE
:1003500003B0BDE8F04F00F05CB900980122400006
:100360000023D0EB020263EBE073009821464FEAD2
:10037000E074B8EB000061EB0401E9E783F00043AF
:100380005BE781F0004158E72DE9FE4F81EA030465
:1003900004F0004421F0004100944FF0000B23F0E2
:1003A000004350EA01045ED052EA03045BD0C3F379
:1003B0000A54C1F30A552C44A4F2F3340194A0FB6F
:1003C0000254C1F3130141F48011C3F3130343F446
:1003D000801301FB024400FB034E840A970A44EA9F
:1003E000815447EA8357A4FB076802958D0A05FBF1
:1003F00007854FEA932C04FB0C542705029D4FEA16
:10040000065847EA1637B5EB08056EEB070C870E62
:10041000920E47EA811742EA8312A7FB0201B6EB6C
:100420000B0164EB00042B0D43EA0C335E1844EB24
:100430001C50DA465146E7FB0201C5F313044FEAAC
:100440000B3343EA14534FEA0432019C43EA060398
:10045000A4F10C040294009CCDE900B400F0E8F88B
:1004600003B0BDE8F08F00200146F9E72DE9F04D1B
:1004700081EA030404F0004B21F0004514464FF0DC
:10048000000A23F0004150EA050220D054EA01029C
:100490001DD0C5F30A570246C5F31303C1F3130079
:1004A000C1F30A5640F4801543F48013A7EB060805
:1004B000101BD64608F2FD3873EB050002D308F195
:1004C000010801E092185B41B8F1000F03DA002047
:1004D0000146BDE8F08D00204FF4801106468446A9
:1004E0000EE0171B73EB050705D3121B63EB050327
:1004F00006434CEA010C49084FEA300092185B4170
:1005000050EA0107EDD152EA030012D082EA04005A
:1005100083EA0501084305D0101BAB4106D2012236
:10052000002306E000224FF0004302E06FF00102DA
:1005300053101AEB06004CEB085110EB0A0041EB8C
:100540000B01BDE8F04D00F064B8C1F30A52C1F3ED
:10055000130140F2FF3341F480119A4202DA002085
:100560000146704740F233439A42A2F2334202DC22
:100570005242FFF7F9BD00F02BB8000030B5041E61
:1005800071F1000404DB4FF00044404264EB0101D0
:10059000141E73F1000405DB1C464FF00043524269
:1005A00063EB0403994208BF904230BD064C074DEF
:1005B00006E0E06840F0010394E807009847103433
:1005C000AC42F6D3FFF7B8FDB04F0008D04F00089B
:1005D000202A04DB203A00FA02F100207047914003
:1005E000C2F1200320FA03F3194390407047202AF8
:1005F00006DBCB17203A41FA02F043EAE07306E04B
:1006000041FA02F3D040C2F120029140084319465A
:10061000704710B5141E73F1000408DA401C41F154
:10062000000192185B411A4301D120F0010010BD76
:100630002DE9F04D92469B4611B1B1FA81F202E0EC
:10064000B0FA80F220329046FFF7C2FF04460F4610
:1006500040EA0A0041EA0B0153465A46084313D0C8
:10066000114653EA010019D0C8F140025046FFF785
:100670007BFD05460E46504659464246FFF7A8FF09
:10068000084305D0012004E020463946BDE8F08D3E
:100690000020054346EAE0762C4337430A98630579
:1006A000E40AA0EB08000022FD0A44EA47540A309D
:1006B00002D500200146E9E7010510196941DDE98D
:1006C000084500196941BDE8F04DA2E72DE9F8475A
:1006D00002460024002000258446002700237BE1F9
:1006E0004FF0010808FA03F4D1F8008008EA04008A
:1006F000A0427DD1DFF8ECA2D1F80480A8EB0A0972
:10070000D0453AD014DCB8F1030F50D009DCB8F171
:10071000000F31D0B8F1010F1CD0B8F1020F49D150
:1007200020E0B8F1110F18D0B8F1120F42D11EE03D
:10073000B9F5881F25D006DCB9F5803F20D0B9F582
:10074000801F37D11AE0B9F5001F18D0B9F5041F82
:1007500030D117E0D1F80CC02DE0D1F80C8008F1B1
:10076000040C28E0D1F80C8008F1080C23E0D1F843
:100770000C8008F10C0C1EE000BF00BF00BF00BFE2
:1007800000BF00BFD1F80880B8F1000F02D14FF0D0
:10079000040C0BE0D1F80880B8F1010F03D14FF041
:1007A000080C146102E04FF0080C546103E04FF0B4
:1007B000000C00E000BF00BFFF2801D8904601E018
:1007C00002F104084646FF2802D84FEA830803E0F6
:1007D000A3F108084FEA88084746D6F800804FF092
:1007E0000F0909FA07F928EA09080CFA07F900E0E5
:1007F0007AE048EA0908C6F80080D1F8048008F0D9
:100800008058B8F1805F6FD100BFDFF8DC81D8F885
:10081000188048F00108DFF8D091C9F81880C84660
:10082000D8F8188008F00108CDF8008000BF00BF9C
:100830004FEAB9384FEA930958F829504FEA8378BC
:100840004FEA18794FF00F0808FA09F825EA080569
:10085000DFF89881424502D14FF0000824E0DFF82C
:100860009081424502D14FF001081DE0DFF88481FC
:10087000424502D14FF0020816E0DFF87C81424584
:1008800002D14FF003080FE0DFF87081424502D13A
:100890004FF0040808E0DFF86881424502D14FF0CC
:1008A000050801E04FF006084FEA83794FEA19790D
:1008B00008FA09F848EA0505DFF848814FEA930984
:1008C00048F82950D1F8048008F48038B8F5803F02
:1008D0000BD1DFF83481D8F8008048EA0008DFF84F
:1008E0002891C9F800800AE075E0DFF81C81D8F88B
:1008F000008028EA0008DFF81091C9F80080D1F8DC
:10090000048008F40038B8F5003F0ED1DFF8F88015
:1009100008F10408D8F8008048EA0008DFF8E890F9
:1009200009F10409C9F800800DE0DFF8DC8008F166
:100930000408D8F8008028EA0008DFF8CC9009F114
:100940000409C9F80080D1F8048008F48018B8F5CB
:10095000801F0ED1DFF8B08008F10808D8F80080B9
:1009600048EA0008DFF8A09009F10809C9F80080FA
:100970000DE0DFF8948008F10808D8F8008028EA34
:100980000008DFF8849009F10809C9F80080D1F85F
:10099000048008F40018B8F5001F0ED1DFF8688055
:1009A00008F10C08D8F8008048EA0008DFF85890F1
:1009B00009F10C09C9F800800DE0DFF84C8008F15E
:1009C0000C08D8F8008028EA0008DFF83C9009F10C
:1009D0000C09C9F800805B1C102BFFF481AEBDE848
:1009E000F8870000000011100010024000080140CC
:1009F000000C0140001001400014014000180140AB
:100A0000001C01400800014000040140C2684A4047
:100A1000C26070470AB1016101E00B0403617047D5
:100A200001480068704700007C000020034800680F
:100A30000349097808440149086070477C00002098
:100A40008400002008B500BF1948806940F001000B
:100A5000174988610846806900F00100009000BFD6
:100A600000BF00BF0846C06940F08050C86108461A
:100A7000C06900F08050009000BF00BF0D480068C2
:100A800040F010000B490860042000F089F80F20A6
:100A900000F014F800F038F800BF0749486820F06B
:100AA000E06040F00070486000BF002008BD00001A
:100AB00000100240002002400000014070B50446D2
:100AC0000E4800784FF47A71B1FBF0F00C490968D8
:100AD000B1FBF0F5284601F081F808B1012070BDA6
:100AE000102C07D200222146501E00F01BF80548AA
:100AF000046001E00120F2E70020F0E7840000201C
:100B00008800002080000020704700BF00F01F0216
:100B1000012191404209920002F1E022C2F8001145
:100B200000BF70472DE9F05F80460D46164600274E
:100B300001F0AEF8074639462A46334601F0070071
:100B4000C0F1070ABAF1040F02D94FF0040A01E01C
:100B5000C0F1070AD14600F1040ABAF1070F02D228
:100B60004FF0000A01E0A0F1030AD4464FF0010A59
:100B70000AFA09FAAAF1010A0AEA020A0AFA0CFABE
:100B80004FF0010B0BFA0CFBABF1010B0BEA030B63
:100B90004AEA0B042146404601F082F8BDE8F09F86
:100BA00000BF00F00702064B19684FF6FF0319401B
:100BB000044B0B4343EA0221014B196000BF70470D
:100BC0000CED00E00000FA0500BF00BF00BF00BF51
:100BD00000BFBFF34F8F00BF00BF00BF09480068D0
:100BE00000F4E06008490843001D0649086000BFA2
:100BF00000BF00BFBFF34F8F00BF00BF00BF00BFEB
:100C000000BFFDE70CED00E00000FA05F8B5044672
:100C100000260025207800F0010000286BD0002776
:100C20004348C06900F0805070B900BF4048C069B7
:100C300040F080503E49C8610846C06900F08050CD
:100C4000009000BF00BF01273A48006800F48070A0
:100C5000B0B93848006840F4807036490860FFF742
:100C6000DFFE064606E0FFF7DBFE801B642801D9A5
:100C70000320F8BD2F48006800F480700028F2D0EF
:100C80002B48006A00F440752DB3A08800F4407032
:100C9000A84220D02648006A20F440750120264949
:100CA0000860002008602248056205F0010090B14C
:100CB000FFF7B6FE064608E0FFF7B2FE801B41F2E2
:100CC0008831884201D90320D3E71948006A00F02F
:100CD00002000028F0D01648006A20F440706168D5
:100CE000084313490862012F04D10846C06920F067
:100CF0008050C86100BF207800F00200022807D1B0
:100D00000B48406820F44040A16808430849486007
:100D1000207800F01000102807D10548406820F422
:100D2000800061690843024948600020A1E7000093
:100D300000100240007000404004424270B504467A
:100D40000D4600266248006800F00700A8420ED257
:100D50005F48006820F0070028435D4908600846A6
:100D6000006800F00700A84201D0012070BD207883
:100D700000F00200022807D15648406820F0F00039
:100D8000A168084353494860207800F0010000281A
:100D90005DD06068012806D14E48006800F400303C
:100DA00090B90120E2E76068022806D1494800684E
:100DB00000F0007040B90120D8E74648006800F014
:100DC000020008B90120D1E74248406820F0030042
:100DD000616808433F494860FFF722FE06466068A5
:100DE000012810D108E0FFF71BFE801B41F288317B
:100DF000884201D90320B9E73648406800F00C006A
:100E00000428F0D123E06068022810D108E0FFF741
:100E100007FE801B41F28831884201D90320A5E7F3
:100E20002C48406800F00C000828F0D10FE008E0E2
:100E3000FFF7F6FD801B41F28831884201D903207B
:100E400094E72448406800F00C000028F0D12048C6
:100E5000006800F00700A8420ED91D48006820F085
:100E6000070028431A4908600846006800F0070098
:100E7000A84201D0012079E7207800F0040004287E
:100E800007D11448406820F4E060E1680843114944
:100E90004860207800F00800082808D10D48406814
:100EA00020F46050216940EAC1000A49486000F01E
:100EB0003DF808494968C1F30311074A515CC8402D
:100EC000064908600F20FFF7F9FD00204EE70000FB
:100ED0000020024000100240104A00088800002054
:100EE00001480068704700008800002000B5FFF747
:100EF000F7FF04494968C1F30221034A515CC84025
:100F000000BD000000100240204A000800B5FFF7B5
:100F1000E7FF04494968C1F3C221034A515CC84054
:100F200000BD000000100240204A0008F0B585B066
:100F30000FF26C0C9CE8E01001A8A0E8E0101CA5E2
:100F40002D68009500210022002300240020194D67
:100F5000696801F00C05F5B1042D02D0082D19D1F6
:100F600001E0154819E001ADC1F38346AC5D01F421
:100F7000803555B10F4D6D68C5F340451DF805200E
:100F80000D4D6543B5FBF2F302E00C4D04FB05F398
:100F9000184602E000BF084800BF00BF05B0F0BD22
:100FA00002030405060708090A0B0C0D0E0F1010AA
:100FB000010200000010024000127A0000093D000A
:100FC000F8B504460025207800F00100002878D00C
:100FD000F848406800F00C0004280CD0F548406840
:100FE00000F00C00082811D1F248406800F480306D
:100FF000B0F5803F0AD1EF48006800F400300028C7
:101000005FD0606800285CD10120F8BD00BF606837
:10101000B0F5803F06D1E748006840F48030E549EC
:10102000086028E0606858B9E248006820F4803021
:10103000E04908600846006820F4802008601AE053
:101040006068B0F5A02F0BD1DA48006840F480202A
:10105000D84908600846006840F4803008600AE01B
:10106000D448006820F48030D249086008460068FF
:1010700020F48020086000BF606888B1FFF7D0FCD2
:10108000054606E0FFF7CCFC401B642801D903208D
:10109000BBE7C848006800F400300028F2D010E038
:1010A000FFF7BEFC054606E0FFF7BAFC401B6428CC
:1010B00001D90320A9E7BF48006800F400300028E8
:1010C000F2D1207800F00200022857D1B9484068D8
:1010D00000F00C0050B1B748406800F00C00082840
:1010E00018D1B448406800F4803098B9B14800681D
:1010F00000F0020020B12069012801D0012084E71E
:10110000AC48006820F0F800616940EAC100A949D4
:10111000086033E02069E8B10120A7490860FFF7C3
:101120007FFC054606E0FFF77BFC401B022801D947
:1011300003206AE79F48006800F002000028F2D010
:101140009C48006820F0F800616940EAC1009949B4
:10115000086013E0002098490860FFF761FC05462D
:1011600006E0FFF75DFC401B022801D903204CE795
:101170009048006800F002000028F2D1207800F0CA
:10118000080008282DD1A069B8B101208B4908605A
:10119000FFF746FC054606E0FFF742FC401B02282D
:1011A00001D9032031E78348406A00F0020000289B
:1011B000F2D0012000F08AFD13E000207F49086092
:1011C000FFF72EFC054606E0FFF72AFC401B02282D
:1011D00001D9032019E77748406A00F0020000288F
:1011E000F2D1207800F00400042873D10026714861
:1011F000C06900F0805070B900BF6E48C06940F00F
:1012000080506C49C8610846C06900F08050009069
:1012100000BF00BF01266A48006800F48070B0B9C2
:101220006748006840F4807065490860FFF7F8FB84
:10123000054606E0FFF7F4FB401B642801D90320B4
:10124000E3E65F48006800F480700028F2D000BF39
:10125000E068012806D15748006A40F0010055496E
:10126000086227E0E06858B95248006A20F001009F
:10127000504908620846006A20F00400086219E03C
:10128000E06805280BD14B48006A40F0040049494A
:1012900008620846006A40F0010008620AE045481A
:1012A000006A20F00100434908620846006A20F005
:1012B0000400086200BFE068A0B1FFF7B1FB05467B
:1012C00009E0FFF7ADFB401B41F28831884202D9AB
:1012D00003209AE622E03748006A00F00200002866
:1012E000EFD012E0FFF79CFB054608E0FFF798FB04
:1012F000401B41F28831884201D9032085E62D4800
:10130000006A00F002000028F0D1012E05D1294822
:10131000C06920F080502749C86100BFE069C8B3A8
:101320002448406800F00C00082860D0E0690228DA
:1013300048D1002020490866FFF772FB054606E009
:10134000FFF76EFB401B022801D903205DE6194818
:10135000006800F000700028F2D1206AB0F5803FEC
:1013600007D11448406820F40030A16808431149AF
:101370004860D4E9080108430E49496821F4741112
:1013800008430C49486001200B490866FFF748FBF9
:10139000054607E02DE0FFF743FB401B022801D97B
:1013A000032032E60348006800F000700028F2D005
:1013B0001FE0000000100240000042428004424250
:1013C0000070004000200C490866FFF729FB054625
:1013D00006E0FFF725FB401B022801D9032014E695
:1013E0000648006800F000700028F2D101E00120FA
:1013F0000BE6002009E60000000042420010024017
:1014000010B504460CB9012010BDA06AB0F5005F0C
:1014100000D100BF94F8510010B9204600F03AF80E
:10142000022084F851002068006820F04000216804
:101430000860D4E901010843E168084321690843D1
:1014400061690843218B01F400710843E169084395
:10145000216A0843A16A0843216808600421A06941
:1014600001EA1040616A0843216848602168E06A27
:1014700008612068C06920F400602168C86100200C
:10148000034908706065012084F851000020BBE723
:101490008C00002070472DE9FC4704460D46174696
:1014A0001E4600200190804681466068B0F5827F2C
:1014B0000DD1A06858B9042084F851003B462A4653
:1014C00029462046009600F0FBF9BDE8FC8700BFE6
:1014D00094F85000012801D10220F6E7012084F899
:1014E000500000BFFFF79CFA804694F85100012895
:1014F00002D04FF00209E9E005B117B94FF0010938
:10150000E4E0042084F8510000206065A563A7870B
:10151000E7872063A086E08620646064A06AB0F557
:10152000005F11D100BF206800684DF6FF710840D0
:10153000216808602068006840F400502168086055
:1015400000BFE08F401EE087A068B0F5004F05D1D6
:101550002068006820F480402168086020680068E6
:1015600000F04000402805D02068006840F04000AE
:1015700021680860E068E8B918E02068806800F039
:10158000010038B12068007B28706D1CE08F401E80
:10159000E0870BE03EB1701C40B1FFF741FAA0EBD1
:1015A0000800B04202D34FF003098FE0E08F00281B
:1015B000E3D11CE018E02068806800F0010038B139
:1015C0002068C0682880AD1CE08F401EE0870BE0DB
:1015D0003EB1701C40B1FFF723FAA0EB0800B04207
:1015E00002D34FF0030971E0E08F0028E3D1A06A35
:1015F000B0F5005F32D12068006840F48050216867
:1016000008603346012211462046CDF8008000F0E4
:1016100099FB10B14FF0030958E0E068B0F5006F96
:1016200003D12068C068288002E02068007B287011
:101630003346012211462046CDF8008000F082FB9F
:1016400030B1606D40F0020060654FF003093DE08D
:101650002068C06880B20190BDF804006068B0F5F1
:10166000827F0DD1A068B0F5004F03D0A068B0F51F
:10167000806F05D12068006820F040002168086074
:1016800020688068C0F30010D8B1204600F046FB07
:10169000012812D1606D40F00200606500BF206833
:1016A00000684DF6FF7108402168086020680068F6
:1016B00040F400502168086003E04FF6EF702168A5
:1016C0008860606D08B14FF0010900BF012084F807
:1016D000510000BF002084F8500000BF4846F4E6E7
:1016E0002DE9F84304460D4617461E464FF0000804
:1016F000C14600BF94F85000012802D10220BDE885
:10170000F883012084F8500000BFFFF789F9804674
:1017100094F85100012802D04FF00209C6E005B14B
:1017200017B94FF00109C1E0032084F851000020EF
:1017300060652563A786E786A063A087E08760646D
:101740002064A068B0F5004F05D12068006840F41F
:10175000804021680860A06AB0F5005F0ED100BF2C
:10176000206800684DF6FF71084021680860206815
:10177000006840F400502168086000BF20680068DD
:1017800000F04000402805D02068006840F040008C
:1017900021680860E068B0F5006F2AD1606810B178
:1017A000E08E012806D128882168C860AD1CE08E33
:1017B000401EE08619E02068806800F002000228E0
:1017C00007D128882168C860AD1CE08E401EE086E5
:1017D0000BE03EB1701C40B1FFF722F9A0EB08000E
:1017E000B04202D34FF0030960E0E08E0028E2D15E
:1017F00029E0606810B1E08E012806D128782168C0
:1018000008736D1CE08E401EE08619E02068806839
:1018100000F00200022807D12878216808736D1CA7
:10182000E08E401EE0860BE03EB1701C40B1FFF739
:10183000F7F8A0EB0800B04202D34FF0030935E0FF
:10184000E08E0028E2D13346012202212046CDF865
:10185000008000F077FA10B14FF0030926E042460D
:101860003146204600F046FA20B14FF00109202011
:1018700060651BE0A06850B900BF002000902068A0
:10188000C068009020688068009000BF00BFA06A18
:10189000B0F5005F05D12068006840F480502168F1
:1018A0000860606D08B14FF0010900BF012084F8A5
:1018B000510000BF002084F8500000BF48461EE7DA
:1018C0002DE9FF5F04460D4616461F46DDF83880B9
:1018D0004FF0000A00200390029081464FF0010B68
:1018E000019000BF94F85000012803D1022004B0F9
:1018F000BDE8F09F012084F8500000BFFFF790F88A
:10190000814694F851A060680390BAF1010F0BD0A2
:101910000398B0F5827F04D1A06810B9BAF1040F22
:1019200002D0022001903BE10DB106B117B90120B0
:10193000019035E194F85100012802D1052084F886
:10194000510000206065A663E787A7872563E786C7
:10195000A78620646064A06AB0F5005F0ED100BF66
:10196000206800684DF6FF71084021680860206813
:10197000006840F400502168086000BF20680068DB
:1019800000F04000402805D02068006840F040008A
:1019900021680860E068B0F5006F4FD1606810B151
:1019A000E08E012806D128882168C860AD1CE08E31
:1019B000401EE0863BE0BBF1000F1CD0E08ED0B1B2
:1019C0002068806800F00200022814D1288821686D
:1019D000C860AD1CE08E401EE0864FF0000BE08E2C
:1019E00048B9A06AB0F5005F05D12068006840F4EE
:1019F000805021680860E08F68B12068806800F03E
:101A0000010040B12068C0683080B61CE08F401EE5
:101A1000E0874FF0010B08F1010040B1FFF700F83B
:101A2000A0EB0900404502D303200190B8E0E08E0E
:101A30000028C0D1E08F0028BDD14EE0606810B111
:101A4000E08E012806D12878216808736D1CE08E8D
:101A5000401EE0863BE0BBF1000F1CD0E08ED0B111
:101A60002068806800F00200022814D115F8010BEC
:101A700021680873E08E401EE0864FF0000BE08E78
:101A800048B9A06AB0F5005F05D12068006840F44D
:101A9000805021680860E08F68B12068806800F09D
:101AA000010040B12068C06806F8010BE08F401EBD
:101AB000E0874FF0010B08F1010040B1FEF7B0FFE5
:101AC000A0EB0900404502D30320019068E0E08EBE
:101AD0000028C0D1E08F0028BDD1A06AB0F5005F1A
:101AE00015D14346012211462046CDF8009000F062
:101AF00029F930B1606D40F002006065032001906B
:101B00004EE02068C06880B20290BDF808002068EE
:101B10008068C0F30010F0B1204600F0FFF8012803
:101B200015D1606D40F00200606500BF206800685C
:101B30004DF6FF710840216808602068006840F495
:101B400000502168086000BF0120019003E04FF6BB
:101B5000EF70216888604346012202212046CDF8BB
:101B6000009000F0EFF810B10320019018E04A4611
:101B70004146204600F0BEF820B10120019020200F
:101B800060650DE0A06850B900BF0020009020689B
:101B9000C068009020688068009000BF00BF00BF50
:101BA000012084F8510000BF002084F8500000BFDD
:101BB00001989CE6042808D14FF0E021096941F022
:101BC00004014FF0E022116107E04FF0E0210969C4
:101BD00021F004014FF0E0221161704770B5044616
:101BE0002546681EB0F1807F01D301200FE0681EFA
:101BF0004FF0E02148610F214FF0FF3000F050F826
:101C000000204FF0E021886107200861002070BDAE
:101C100010B504460CB9012010BDA06900B100E068
:101C200000BF94F8390028B9002084F83800204615
:101C300000F027F8242084F839002068C06820F4D8
:101C400000502168C860204600F040F92068006913
:101C500020F49040216808612068406920F02A0043
:101C6000216848612068C06840F400502168C8605D
:101C70000020E063202084F8390084F83A00002036
:101C8000CAE7704701E000F0CDFFFCE770470000B5
:101C900002480068C0F30220704700000CED00E02D
:101CA00010B5002807DA0A07140E054A00F00F03E2
:101CB0001B1FD45403E00A07130E024A135410BD2D
:101CC00018ED00E000E400E07047000008B50849A6
:101CD0000968C9084FF47A72B1FBF2F141430091EF
:101CE00000BF00BF00994A1E00920029F9D108BD2B
:101CF00088000020F8B504460D4616462B46002203
:101D000080212046009600F01DF828B1606D40F05B
:101D1000200060650320F8BD0020FCE7014607486D
:101D2000007840B1064A0868904204D108684069CA
:101D300008B9002070470120FCE700008C0000205B
:101D4000003800402DE9F04104460E4617461D4676
:101D5000DDF818803FE0681CE0B32DB1FEF760FEAF
:101D6000A0EB0800A84236D32068406820F0E000CD
:101D7000216848606068B0F5827F0DD1A068B0F539
:101D8000004F03D0A068B0F5806F05D120680068CF
:101D900020F0400021680860A06AB0F5005F0ED115
:101DA00000BF206800684DF6FF7108402168086098
:101DB0002068006840F400502168086000BF0120DE
:101DC00084F8510000BF002084F8500000BF0320B9
:101DD000BDE8F081FFE7206880683040B04201D163
:101DE000012000E00020B842B5D10020F0E77047A4
:101DF00010B5FEF71BFE0348006810B101480068EB
:101E0000804710BD740000201148006840F00100B8
:101E10000F490860084640680E4908400C49486070
:101E2000084600680C4908400949086008460068EF
:101E300020F4802008600846406820F4FE004860D6
:101E40004FF41F008860C803044908607047000011
:101E5000001002400000FFF8FFFFF6FE08ED00E072
:101E600038B50024164800680068C0F3C00080B18F
:101E7000144802F042FB044600BF002000901048C6
:101E80000068006800900E4800684068009000BF3D
:101E900000BF0B4800680068C0F3401078B10948E3
:101EA00002F02BFB04460848006818B1204606499A
:101EB000096888476FF0200001490968086038BD4B
:101EC0009400002000500040780000202DE9F041EF
:101ED000044600252068006920F44050E16808436A
:101EE000216808612169A0680843616908430543C6
:101EF0002068C06841F20C61884328432168C860AB
:101F00002068406920F44070A16908432168486155
:101F10005F49206888425CD1FEF7F8FF00EBC00102
:101F200001EB001061688900B0FBF1F6FEF7EEFFEF
:101F300000EBC00101EB001061688900B0FBF1F01B
:101F40006421B0FBF1F000EBC00101EB0010A6EB47
:101F50008000322101EB00106421B0FBF1F000F0B1
:101F6000F006FEF7D3FF00EBC00101EB0010616843
:101F70008900B0FBF1F06421B0FBF1F006EB001634
:101F8000FEF7C4FF00EBC00101EB0010616889009F
:101F9000B0FBF1F7FEF7BAFF00EBC00101EB001058
:101FA00061688900B0FBF1F06421B0FBF1F000EB57
:101FB000C00101EB0010A7EB8000322101EB001003
:101FC0006421B0FBF1F000F00F003044216888601C
:101FD0005BE0FEF78BFF00EBC00101EB00106168D6
:101FE0008900B0FBF1F6FEF781FF00EBC00101EBC9
:101FF000001061688900B0FBF1F06421B0FBF1F0E2
:1020000000EBC00101EB0010A6EB8000322101EBD8
:1020100000106421B0FBF1F000F0F006FEF766FF5F
:1020200000EBC00101EB001061688900B0FBF1F02A
:102030006421B0FBF1F006EB0016FEF757FF00EB52
:10204000C00101EB001061688900B0FBF1F7FEF7F9
:102050004DFF00EBC00101EB001061688900B0FB8F
:10206000F1F06421B0FBF1F000EBC00101EB0010D6
:10207000A7EB8000322101EB00106421B0FBF1F0EE
:1020800000F00F00304421688860BDE8F081000056
:10209000003801400FB4054B10B503A9044A02985B
:1020A00000F0DCF810BC5DF814FB0000B12900085A
:1020B000900000207CB5491E1C461546CDE9000164
:1020C000044B6A462146284600F0C8F8009A0021D1
:1020D00011707CBD8B29000802E008C8121F08C1DE
:1020E000002AFAD170477047002001E001C1121F99
:1020F000002AFBD1704700002DE9FF5FDDE90220D7
:10210000010DDDF838B0024318D044F61050A1F2AA
:10211000FF3141430D140F98012820D0A5EB0B008F
:10212000401C5FEA000A4FF00004474EDFF81C91A4
:10213000A046504616D5CAF1000728E00F980124A2
:1021400043A2012808D0002100980F9BC0E900217C
:10215000C0E90243BDE8FF9F6FEA0B01F4E7CBF152
:102160000000DEE7074612E0F80707D022463346B4
:1021700040464946FEF708F98046894622463346DE
:1021800010461946FEF700F904460E467F10002F50
:10219000EAD1DDE90201BAF1000F42464B4602DA0C
:1021A000FEF7F2F801E0FEF761F904460E46002260
:1021B000284BFEF7E3F903D84FF0FF30014607E064
:1021C0000022254B20463146FEF737F8FEF7BDF9D1
:1021D000102409E0002C0ADB0A220023FDF7FCFF93
:1021E000019B30321A55641E50EA0102F2D1641C80
:1021F000019AC4F1110314440F9A012A03D0012259
:1022000008430DD10AE0084304D000204FF0110B21
:102210000F9080E7A3EB0B056D1E0DE05B4504DD21
:102220004FF0000205F1010504E003DA4FF000026F
:10223000A5F10105002AECD000980F99C0E9023100
:10224000C0E9004586E70000000024400000F03FA0
:10225000300000000000F0430000E03F2DE9FF4F98
:1022600095B09B468946064600250FE2252877D182
:1022700000242746F84A0121059400E0044316F89B
:10228000013F203B01FA03F01042F7D130782A28B1
:1022900011D06FF02F033078A0F13002092A16D840
:1022A000059A44F0020402EB820203EB420210445E
:1022B000761C0590EFE759F8042B0592002A03DA03
:1022C000504244F40054059044F00204761C3078E7
:1022D0002E2816D116F8010F44F004042A280DD038
:1022E0006FF02F023078A0F13003092B09D807EBEB
:1022F000870302EB4303C718761CF3E759F8047B06
:10230000761C30786C280FD006DC4C2817D0682853
:102310000DD06A2814D104E0742810D07A280FD187
:102320000DE044F400140AE044F4801401E044F4A5
:1023300040147278824202D104F58014761C761C17
:10234000307866280BD013DC582877D009DC0028B9
:1023500075D04528F6D04628F4D047281AD19DE1FB
:1023600018E0632835D0642879D0652812D195E12A
:10237000702873D008DC6728F1D069286FD06E28E8
:102380000DD06F2806D1B5E073282CD0752875D0F4
:10239000782874D05A46179990476D1C75E1C4F39C
:1023A0000250022809D003280DD0D9F800100428C3
:1023B0000DD00D6009F1040967E1D9F80010EA17A2
:1023C000C1E90052F6E7D9F800100D80F2E70D7070
:1023D000F0E719F8041B8DF8001000208DF80100BB
:1023E000EA46012003E059F804AB4FF0FF306107E3
:1023F0004FF0000102D40DE008F101018846B94216
:102400000FDA8045F8DB1AF808100029F4D108E04B
:1024100008F1010188468142FADB1AF80810002908
:10242000F6D105985B46A0EB080721463846179A77
:1024300000F094FA284400EB080507E04DE029E19C
:102440000DE01AF8010B5A4617999047B8F10108A8
:10245000F7D25B4621463846179A13E142E00A223A
:102460000092C4F302524FF0000A022A08D059F831
:1024700004CB032A4FEAEC710AD00DE029E02AE0F0
:1024800009F1070121F00702F2E802C1914609E0D3
:102490000FFA8CFC4FEAEC71042A03D14FFA8CFC42
:1024A0004FEAEC71002907DA0A460021DCF1000C42
:1024B00061EB02012D2202E0220504D52B228DF8CA
:1024C0000420012203E0E20701D02022F7E7904632
:1024D00059E00A2102E010220DE010214FF0000A1D
:1024E00000910BE010224FF0000A44F0040408278A
:1024F000009203E008224FF0000A0092C4F3025257
:10250000022A05D059F804CB0021032A08D009E09B
:1025100009F1070121F00702F2E802C1914605E046
:102520001FFA8CFC042A01D10CF0FF0C4FF00008BC
:10253000220728D5702806D0009B83F0100353EAA9
:102540000A0305D00EE040228DF80420012208E0A5
:102550005CEA010206D030228DF804208DF80500D7
:1025600002229046009B83F0080353EA0A030AD133
:102570005CEA010201D1620705D530228DF8042002
:102580004FF001087F1E582804D034A003900EA8F5
:1025900002900DE036A0F9E753466046009AFDF739
:1025A0001BFE84460398825C0298401E02900270D3
:1025B0005CEA0100F0D1029806A9081A00F1200A8D
:1025C000600702D524F4803400E00127574502DD7E
:1025D000A7EB0A0000E0002000EB0A01009005983C
:1025E0004144401A0590E00306D45B462146179A01
:1025F000059800F0B3F90544002706E001A85A4603
:10260000C05D179990476D1C7F1C4745F6DBE003C2
:102610000CD55B462146179A059800F09FF90544B2
:1026200004E030205A46179990476D1C0099481EC7
:1026300000900029F5DC08E0029802995A460078DB
:10264000491C0291179990476D1CBAF10001AAF13B
:10265000010AF1DC65E10000092801003031323364
:1026600034353637383961626364656600000000CE
:1026700030313233343536373839414243444546B8
:102680000000000000F058F90544761C307800285E
:102690007FF4ECAD19B02846BDE8F08F620700D496
:1026A000062709F1070222F0070CFCE80223E146A5
:1026B00003F000485FEA080C02D00FF2702C0DE026
:1026C0005FEA045C02D50FF2682C07E05FEAC47C85
:1026D00002D00FF2602C01E0AFF2700C4FF0FF3827
:1026E00023F00043CDF850C065280CD006DC452807
:1026F00009D046281DD047283DD13DE0662818D096
:1027000067287ED138E00021112F01DB112000E085
:10271000781CCDE9000106A90EA8FFF7EDFCDDE964
:102720000F010E9A03910021009207F1010A049112
:102730004DE04FF000400097CDE9011006A90EA82A
:10274000FFF7DAFCDDE90F0203920E9B11990022DC
:10275000DDF80CA00093049211B9791C00EB010A7A
:10276000B7EB0A0004D4C0F1FF3007F1010A04906E
:10277000AAEB0700019044E0012F00DA01270021B5
:10278000112F01DD112000E03846CDE9000106A936
:102790000EA8FFF7B1FCDDE90F010E9A03910021AD
:1027A00004910092BA4621070CD40399514500DAEE
:1027B0008A46BAF1010F05DD009AAAF10101515CC8
:1027C000302908D0B84202DA10F1040F06DA0121EC
:1027D000CDE9011015E0AAF10101E9E7002805DCC7
:1027E000049901440491AAEB000102E0411C514507
:1027F00000DD8A460499401A401C01904FF00040C9
:102800000290200704D40198504501DBCDF80480E4
:1028100000208DF84F0002980DF14F07B0F1004FE6
:1028200025D02B200E9002984FF0020800280CDAD9
:10283000404202902D200E9007E00A210298FDF7F9
:10284000B5FC3031029007F8011DB8F10001A8F184
:102850000108F2DC02980028EFD1791E0E9808706A
:10286000307800F0200040F0450007F8020D12A873
:10287000C01B00F107081498007800B1012000EB9C
:102880000A01019801EBE07105984144401A401E8D
:102890000590E00306D45B462146179A059800F0A0
:1028A0005DF805441498007818B15A461799904776
:1028B0006D1CE00324D55B462146179A059800F06D
:1028C0004DF805441CE00498002807DBDDE903010E
:1028D000884203DD0098405C179901E01799302089
:1028E0005A469047049805F10105401C0490019850
:1028F000401E019004D12E205A46179990476D1C16
:10290000BAF10001AAF1010ADDDC05E017F8010BBC
:102910005A46179990476D1CB8F10001A8F10108BB
:10292000F4DC5B462146179A0598ABE62D000000C3
:102930002B000000200000002DE9F0410446002596
:102940001E461746880404D405E039462020B047C7
:102950006D1C641EF9D52846BDE8F0812DE9F041D3
:10296000044600251E469046C80301D5302700E0E6
:102970002027880404D505E041463846B0476D1C41
:10298000641EF9D52846BDE8F0814A68002A06D0C1
:102990000A68531C0B6010704868401E48607047FE
:1029A0000020C82000BF0100A0F10100FBD170474A
:1029B00070B504460D46E0B200F0E0F9204670BD67
:1029C00030B595B00446FEF73DF83B48844228D127
:1029D00009200B904FF480300C90012011900020C2
:1029E0000D9012904FF480311391002114910BA897
:1029F000FEF7E6FA18B101E000F014F9FCE70F2049
:102A00000690012007900020089009900A9002216A
:102A100006A8FEF793F900282ED001E000F002F995
:102A2000FCE72648844227D109200B904FF48030E0
:102A30000C900120119000200D9002201290C103F3
:102A40001391002114910BA8FEF7BAFA18B101E016
:102A500000F0E8F8FCE70F20069002200790002025
:102A6000089009900A90022106A8FEF767F918B1AC
:102A700001E000F0D7F8FCE701200090400201904F
:102A80006846FEF7C3F818B101E000F0CBF8FCE7A8
:102A9000FEF726FA4FF47A71B0FBF1F52846FFF7FE
:102AA0009DF80420FFF786F800221146501EFEF71D
:102AB00039F815B030BD000000127A000024F4008F
:102AC00010B586B0002400BF2E48806940F0040095
:102AD0002C4988610846806900F00400019000BF1D
:102AE00000BF00BF0846806940F0080088610846C2
:102AF000806900F00800019000BF00BF00BF0846D9
:102B0000806940F0100088610846806900F010007C
:102B1000019000BF00BF00BF0846806940F0200060
:102B200088610846806900F02000019000BF00BF66
:102B300000BF22E004EB8400134901EB80008068B1
:102B4000039004EB840001EB80004068029004EBEA
:102B5000840001EB8000C068049004EB840001EB6A
:102B600080000069059004EB8401074A52F82100B7
:102B700002A9FDF7ABFD601CC4B2072CDAD306B086
:102B800010BD0000001002408449000870B50446E2
:102B90000D4675B904EB8402164B03EB8202928852
:102BA00091B204EB840253F822000022FDF732FFB9
:102BB0001FE0012D0ED104EB84020E4B03EB8202C9
:102BC000928891B204EB840253F822000122FDF7AF
:102BD00021FF0EE0022D0CD104EB8402054B03EB28
:102BE0008202928891B204EB840253F82200FDF72E
:102BF0000DFF70BD8449000810B500BF72B600BF5C
:102C00000748FFF7DDFEFFF75BFF00BF62B600BFBE
:102C10004FF4E13000F064F800F00CF810BD000053
:102C20000024F40010B5012080F3138800BFFDF7E5
:102C3000CBFF10BD08B500BF1748806940F4805035
:102C4000154988610846806900F48050009000BFF3
:102C500000BF1248124908604FF48270486000219A
:102C60000F488160C1600221016101214161490277
:102C700081610021C1610162416281620721C162FB
:102C8000FEF7BEFB06480068006840F040000449BB
:102C90000968086008BD00000010024000300140D3
:102CA000D40000202DE9F04106460C4617461D468B
:102CB0004FF0000834B1A2B24FF0FF33314607485D
:102CC000FEF70EFD35B1AAB24FF0FF333946034887
:102CD000FEF7E1FB4046BDE8F0810000D400002093
:102CE00038B5044600BF2248C06940F4801020492E
:102CF000C8610846C06900F48010009000BF00BFA2
:102D00001C481D4908600846446000218160C1607C
:102D1000016181610C2141610068C06820F40050AC
:102D200015490968C8601448FEF772FF1248006828
:102D3000C06820F0800010490968C8600E4800682B
:102D4000C06840F020000C490968C86001220021D9
:102D50003520FDF7E7FE3520FDF7D7FE0648006871
:102D6000C06840F4005004490968C86038BD0000DC
:102D700000100240005000409400002000BF0649AF
:102D800009680968C1F380110029F8D0C0F308016F
:102D9000014A12685160704794000020F8B504465B
:102DA00000264CB97C487DA37EA2FC21009085A022
:102DB00001F0D6F900BFFEE7204601F0BBFA064657
:102DC0000EB13046F8BD606A50B9734886A375A24B
:102DD00040F2091100907BA001F0C2F900BFFEE7AC
:102DE000206930B1A08A20B1A06910B1207F0028ED
:102DF0007AD1204600F068FD06460EB13046E1E784
:102E0000204601F0F5F960B30020A060216D21613A
:102E10004820005B012802D10221A18201E00121AA
:102E2000A182616DA16194F858102177012515E008
:102E300004F1540050F8350078B104F1540050F812
:102E40003500A169814208D904F1540050F83510C9
:102E5000A16100EBC500017921776D1C042DE7D33A
:102E600042E000253DE005EB4500634901EBC00071
:102E70000179207B814233D105EB45005E4901EBAE
:102E8000C0004179607B81422AD105EB45005A4957
:102E900001EBC0008179A07B814221D105EB450087
:102EA000554951F83000A06005EB450001EBC0002A
:102EB0008168216105EB45004F4901EBC000818924
:102EC000A18205EB45004C4901EBC0000169A161FD
:102ED00005EB4500484901EBC000017D217702E088
:102EE0006D1C132DBFD300BF206928B1A08A18B173
:102EF000A06908B1207F20B940A001F059F9012054
:102F000060E7002700250BE04B4800EBC500017986
:102F1000207B814203D1484850F8357002E06D1C97
:102F2000102DF1D300BF47B1A06830B1394643A09E
:102F30002369A26801F03CF90AE02FB139464BA0A1
:102F4000226901F035F903E053A0216901F030F95D
:102F500000BF204600F096FE06460EB1304631E72F
:102F6000207D00F0040040B100220121204601F044
:102F7000EFF906460EB1304624E72069B0F1807FB4
:102F800005D90121204600F011FF064602E000208D
:102F900084F83500304615E72C480008666C6173EC
:102FA000680000002825732920686173206173730D
:102FB000657274206661696C656420617420257394
:102FC0002E0D0A002E2E5C2E2E5C636F6D706F6EC0
:102FD000656E74735C736675645C7372635C736650
:102FE00075642E6300000000666C6173682D3E738B
:102FF00070692E7772000000644600085761726E97
:10300000696E673A205468697320666C6173682042
:10301000646576696365206973206E6F7420666FDE
:10302000756E64206F72206E6F7420737570706F90
:1030300072742E0D0A000000E445000846696E64B3
:10304000206120257320257320666C6173682063DE
:103050006869702E2053697A6520697320256C6435
:103060002062797465732E0D0A00000046696E6453
:10307000206120257320666C617368206368697025
:103080002E2053697A6520697320256C642062794B
:103090007465732E0D0A000046696E642061206617
:1030A0006C61736820636869702E2053697A6520AB
:1030B000697320256C642062797465732E0D0A0093
:1030C000FFF79AFD01F018FA01210420FFF75EFDD9
:1030D00000F0E4FF00BFFEE770B586B005460C4681
:1030E00008260020049005904DB9304830A332A244
:1030F0009621009038A001F033F800BFFEE74CB9EC
:103100002A483FA32CA29721009033A001F028F871
:1031100000BFFEE7082304AA3146284600F04EFC13
:1031200028B13BA001F044F8002006B070BD9DF826
:10313000100020709DF8110060709DF81200A070C2
:103140009DF81300E0709DF814009DF8151040EAFA
:1031500001209DF8161040EA01406060A078012827
:1031600006DD6278A178384801F022F80020DCE71B
:10317000E078092805DAE178344801F019F80020F0
:10318000D3E733A2AD2114A000F0EAFFE178627822
:10319000A3786068CDE90032CDE902102378394A7E
:1031A000AE210DA000F0DCFF0120BEE73149000890
:1031B000666C6173680000002825732920686173BC
:1031C00020617373657274206661696C6564206147
:1031D000742025732E0D0A002E2E5C2E2E5C636F3C
:1031E0006D706F6E656E74735C736675645C73721C
:1031F000635C736675645F736664702E63000000C1
:1032000062617369635F68656164657200000000F4
:103210004572726F723A2043616E27742072656145
:1032200064204A4544454320626173696320666CAB
:1032300061736820706172616D6574657220686584
:10324000616465722E0D0A00CC4D0008644F0008C1
:10325000436865636B204A45444543206261736956
:103260006320666C61736820706172616D6574655E
:103270007220686561646572206973204F4B2E0D62
:103280000A000000244D00082DE9F0478EB080466A
:10329000894608F14404D9F804A0242105A8FCF7C4
:1032A0007AFFB8F1000F09D1CD48CEA3CFA2C32138
:1032B0000090D6A000F054FF00BFFEE7B9F1000F68
:1032C00009D1C748DBA3C9A2C4210090CFA000F058
:1032D00047FF00BFFEE7242305AA5146404600F001
:1032E0006DFB30B1D7A000F063FF00200EB0BDE849
:1032F000F087E3A2CC21C5A000F032FFEBA2CD21E4
:10330000C2A000F02DFF00251FE005A810F8250041
:10331000012101EB850105AA515C022202EB850225
:1033200005AB9A5C032303EB85030DF1140C1CF829
:103330000330CDE90032CDE902106B1CE2A2CF21AF
:10334000B2A000F00DFF681CC5B2092DDDDB9DF8B1
:103350001500E0719DF8140000F00300012802D070
:10336000032811D108E00120A071E379E04AD821B7
:10337000A6A000F0F5FE0CE00020A071DDA2DC218B
:10338000A2A000F0EDFE04E0E8A000F011FF002094
:10339000ACE700BF9DF81400C0F3800010B1012815
:1033A00011D107E00120A080EFA2E72197A000F053
:1033B000D7FE08E04FF48070A080F3A2EB2193A029
:1033C00000F0CEFE00BF00BF9DF81400C0F3C000A7
:1033D00010B101282BD107E001202072F5A2F621BF
:1033E0008AA000F0BDFE22E000202072FD4AFB21F1
:1033F00086A000F0B5FE9DF81400C0F3001010B1D7
:10340000012812D108E050206072F74A4FF4807111
:103410007EA000F0A5FE08E006206072F34A40F2AC
:1034200005117AA000F09CFE00BF00BF00BF00BFE6
:103430009DF81600C0F3410020B101280DD00228EC
:1034400020D114E00120A0720020E072E8A24FF425
:1034500088716EA000F084FE1CE00120A072E07272
:10346000EAA240F2151169A000F07AFE12E00020F5
:10347000A0720120E072ECA24FF48D7163A000F005
:103480006FFE07E00020A072E072EEA000F090FE58
:1034900000202BE700BF9DF81B0000069DF81A10C6
:1034A00040EA01409DF8191040EA01209DF81810EB
:1034B00040EA01079DF81B00C00910B1012815D191
:1034C00004E0012000EBD700E0600FE027F00047A8
:1034D000232F06D90020E060E34800F069FE0020B9
:1034E00004E7F81E01218140E16000BF00BFDFA2B8
:1034F0004FF4997145A0E36800F032FE00250026E4
:103500002BE068001C3005A9085C20B368001C3063
:10351000095C0120884004F1100141F83600680080
:103520001D3005A9095C04F1100000EBC600017113
:1035300004F1100000EBC6000079009004F11000C7
:1035400050F83600830AD0A24FF49C712FA000F0EF
:1035500007FE701CC6B2681CC5B2042DD1DB002565
:10356000002637E004F1100050F8350080B3681CE5
:10357000C6B22BE004F1100050F8360020B304F17D
:10358000100050F8351050F8360081421CD904F173
:10359000100252F8351002EBC502107904F1100246
:1035A00052F8363042F8353002EBC602137904F196
:1035B000100202EBC502137104F1100242F836103A
:1035C00002EBC602107100BF701CC6B2042ED1DB24
:1035D000681CC5B2042DC5DB0120207000BF85E644
:1035E00043490008666C6173680000002825732950
:1035F0002068617320617373657274206661696C01
:1036000065642061742025732E0D0A002E2E5C2E19
:103610002E5C636F6D706F6E656E74735C73667530
:10362000645C7372635C736675645F736664702E4A
:103630006300000062617369635F6865616465725D
:10364000000000005761726E696E673A2043616E38
:1036500027742072656164204A45444543206261B5
:1036600073696320666C61736820706172616D6557
:10367000746572207461626C652E0D0A0000000092
:103680004A4544454320626173696320666C6173F7
:103690006820706172616D65746572207461626C1E
:1036A0006520696E666F3A0D0A0000004D53422D89
:1036B0004C53422020332020202032202020203153
:1036C00020202020300D0A005B253034645D20303E
:1036D00078253032582030782530325820307825FF
:1036E000303258203078253032580D0A0000000062
:1036F000E04C0008556E69666F726D2034204B42B5
:1037000020657261736520697320756E61766169E9
:103710006C61626C6520666F7220746869732064E6
:1037200065766963652E0D0A000000004572726FB0
:10373000723A20556E69666F726D2034204B4220BC
:10374000657261736520737570706F727465642043
:10375000696E666F726D6174696F6E206572726FEB
:10376000722E0D0A0000000057726974652067729E
:10377000616E756C617269747920697320312062A1
:103780007974652E0D0A000057726974652067729E
:10379000616E756C617269747920697320363420AA
:1037A0006279746573206F72206C61726765722E26
:1037B0000D0A000054617267657420666C6173685D
:1037C00020737461747573207265676973746572B0
:1037D000206973206E6F6E2D766F6C6174696C65F5
:1037E0002E0D0A00244E00086C4E0008E84E00081A
:1037F000332D42797465206F6E6C79206164647238
:10380000657373696E672E0D0A000000332D206FFB
:103810007220342D4279746520616464726573731B
:10382000696E672E0D0A0000342D42797465206F91
:103830006E6C792061646472657373696E672E0DB6
:103840000A0000004572726F723A2052656164206E
:103850006164647265737320627974657320657244
:10386000726F72210D0A0000844D0008436170617F
:103870006369747920697320256C642042797465CA
:10388000732E0D0A00000000466C617368206465A9
:103890007669636520737570706F72747320256C20
:1038A000644B4220626C6F636B2065726173652E9E
:1038B00020436F6D6D616E64206973203078253010
:1038C00032582E0D0A0000002DE9FF410446002564
:1038D00004F1200654B9194819A31BA240F255312E
:1038E000009021A000F03CFC00BFFEE79F20039069
:1038F0000320009002AB012203A930467768B84745
:103900000546A5B99DF8081021739DF8091061734B
:103910009DF80A10A173A07B617BCDE90010237B89
:103920001A4A40F25D3110A000F01AFC02E018A023
:1039300000F03EFC284604B0BDE8F0819548000840
:10394000666C617368000000282573292068617324
:1039500020617373657274206661696C65642061AF
:10396000742025732E0D0A002E2E5C2E2E5C636FA4
:103970006D706F6E656E74735C736675645C737284
:10398000635C736675642E6300000000704A000873
:103990004572726F723A205265616420666C617381
:1039A0006820646576696365204A4544454320493B
:1039B00044206572726F722E0D0A0000FEB5044637
:1039C0000D4616461F4625A103C9CDE90101280C65
:1039D0008DF80500280A8DF80600E8B28DF807007A
:1039E00054B9204820A322A240F25B11009028A0E5
:1039F00000F0B6FB00BFFEE7B5F1807F0AD319489F
:103A00002DA31BA24FF4AE71009021A000F0A8FBE3
:103A100000BFFEE756B913482BA315A240F25D1173
:103A200000901BA000F09CFB00BFFEE7606A50B94D
:103A30000C4828A30EA24FF4AF71009014A000F020
:103A40008FFB00BFFEE700973346052201A904F172
:103A50002000D4F824C0E047FEBD00005A0000005A
:103A6000FF00000054490008666C617368000000A4
:103A7000282573292068617320617373657274202F
:103A80006661696C65642061742025732E0D0A00DF
:103A90002E2E5C2E2E5C636F6D706F6E656E747370
:103AA0005C736675645C7372635C736675645F7384
:103AB0006664702E6300000061646472203C2031F3
:103AC0004C203C3C20323400726561645F62756654
:103AD00000000000666C6173682D3E7370692E777C
:103AE000720000007FB5054605F144040026002061
:103AF000029003904DB9264826A328A26D2100907C
:103B00002EA000F02DFB00BFFEE700202070082350
:103B100002AA31462846FFF751FF28B131A000F034
:103B200047FB002004B070BD9DF8080053280BD15E
:103B30009DF80900462807D19DF80A00442803D1C2
:103B40009DF80B00502806D02F4A7A211BA000F0C8
:103B500007FB0020E6E79DF80C00A0709DF80D0023
:103B600060706078012806DDA278617827A000F0F7
:103B70001FFB0020D6E79DF80E00A178CDE90010CC
:103B8000637830A283210DA000F0EAFA0120C9E792
:103B900020490008666C61736800000028257329BD
:103BA0002068617320617373657274206661696C4B
:103BB00065642061742025732E0D0A002E2E5C2E64
:103BC0002E5C636F6D706F6E656E74735C7366757B
:103BD000645C7372635C736675645F736664702E95
:103BE000630000004572726F723A2043616E277461
:103BF00020726561642053464450206865616465A5
:103C0000722E0D0A00000000344C00084572726FDD
:103C1000723A205468697320726576657273696FB1
:103C20006E285625642E2564292053464450206969
:103C300073206E6F7420737570706F727465642E6C
:103C40000D0A0000436865636B20534644502068AA
:103C50006561646572206973204F4B2E205468653E
:103C600020726576657273696F6E206973205625C0
:103C7000642E25642C204E504E2069732025642E1E
:103C80000D0A00002DE9FC410546002405F120063F
:103C900055B9214821A323A240F23531009029A033
:103CA00000F05EFA00BFFEE766208DF804000020F9
:103CB00000900346012201A930467768B8470446C0
:103CC00024B9284600F01EFC044605E026A000F0BA
:103CD0006FFA2046BDE8FC8199208DF80500002090
:103CE0000090034601220DF1050130467768B84780
:103CF00004461CB9284600F005FC044634B923A24A
:103D00004FF452710FA000F02BFA02E016A000F061
:103D10004FFA2046DEE700008F480008666C6173AA
:103D2000680000002825732920686173206173737F
:103D3000657274206661696C656420617420257306
:103D40002E0D0A002E2E5C2E2E5C636F6D706F6E32
:103D5000656E74735C736675645C7372635C7366C2
:103D600075642E63000000004572726F723A20463F
:103D70006C6173682064657669636520726573653C
:103D800074206661696C65642E0D0A00466C61736F
:103D90006820646576696365207265736574207355
:103DA0007563636573732E0D0A0000002DE9FC41F5
:103DB00004460D46002654B91E481FA320A240F217
:103DC0009B31009026A000F0CBF900BFFEE7012157
:103DD000204600F089F8064616B13046BDE8FC8161
:103DE00015B1B720019001E0E9200190002000907A
:103DF0000346012201A904F12000676AB84706467C
:103E00006EB984F835500DB11EA000E01FA0034626
:103E100020A240F2AD3112A000F0A2F907E00DB1EE
:103E200018A000E019A0014624A000F0C1F9304616
:103E3000D4E70000B5480008666C617368000000B4
:103E4000282573292068617320617373657274205B
:103E50006661696C65642061742025732E0D0A000B
:103E60002E2E5C2E2E5C636F6D706F6E656E74739C
:103E70005C736675645C7372635C736675642E63F1
:103E800000000000456E746572000000457869749A
:103E900000000000257320342D4279746520616490
:103EA0006472657373696E67206D6F6465207375E6
:103EB00063636573732E0D0A000000004572726F14
:103EC000723A20257320342D427974652061646430
:103ED00072657373696E67206D6F646520666169D2
:103EE0006C65642E0D0A0000FEB504460D460026E2
:103EF00054B91D481DA31FA240F27231009025A0A5
:103F000000F02EF900BFFEE715B10620029001E097
:103F100004200290002000900346012202A904F12F
:103F20002000676AB847064626B901A9204600F076
:103F3000ADF90646B6B94DB19DF8040000F0020097
:103F400020B91DA000F034F90220FEBD55B99DF83E
:103F5000040000F00200012804D120A000F028F99C
:103F60000220F2E73046F0E7A3480008666C617370
:103F7000680000002825732920686173206173732D
:103F8000657274206661696C6564206174202573B4
:103F90002E0D0A002E2E5C2E2E5C636F6D706F6EE0
:103FA000656E74735C736675645C7372635C736670
:103FB00075642E63000000004572726F723A2043F0
:103FC000616E277420656E61626C6520777269741A
:103FD00065207374617475732E0D0A004572726FDB
:103FE000723A2043616E27742064697361626C6564
:103FF000207772697465207374617475732E0D0A6D
:104000000000000070B5044600252046FEF7C6FEFD
:1040100005461DB9204600F017FA05463DB90120B6
:1040200084F8340006A0216800F0C2F806E0002001
:1040300084F834000DA0216800F0BAF8284670BD5D
:10404000257320666C6173682064657669636520FA
:10405000697320696E697469616C697A652073752A
:1040600063636573732E0D0A000000004572726F62
:10407000723A20257320666C6173682064657669E6
:10408000636520697320696E697469616C697A651A
:10409000206661696C2E0D0A0000000070B50025D5
:1040A000002613A314A2742122A000F059F82A4A72
:1040B000752120A000F054F8002414E004EB440023
:1040C000C0EB4410254901EB8000446004EB44013F
:1040D000C1EB4411214A02EB8100FFF793FF054633
:1040E00005B12E46641C002CE8D0304670BD00009F
:1040F000312E312E30000000537461727420696ECD
:10410000697469616C697A652053657269616C20B4
:10411000466C61736820556E6976657273616C20B8
:104120004472697665722853465544292056257392
:104130002E0D0A002E2E5C2E2E5C636F6D706F6E3E
:10414000656E74735C736675645C7372635C7366CE
:1041500075642E6300000000284A0008000000205B
:104160000FB438B504460D4607A800902A462146EC
:1041700009A0FDF78FFF4FF480710B48009B069A52
:10418000FDF798FF084909A0FDF784FF0020009083
:1041900038BC5DF814FB00005B534655445D282590
:1041A000733A256C642920002C01002025730A0035
:1041B0000FB408B503A8009009A0FDF76BFF4FF4FA
:1041C00080710948009B029AFDF774FF064907A019
:1041D000FDF760FF0020009001B05DF814FB0000C7
:1041E0005B534655445D00002C01002025730A00F6
:1041F0003EB504464CB90F480FA311A251210090BF
:1042000017A0FFF7ADFF00BFFEE72046FFF76AFCEF
:1042100048B101A92046FEF75FFF20B101A9204661
:10422000FFF732F83EBD18482168FFF7C1FF0020B4
:10423000F8E7000011490008666C6173680000002F
:104240002825732920686173206173736572742057
:104250006661696C65642061742025732E0D0A0007
:104260002E2E5C2E2E5C636F6D706F6E656E747398
:104270005C736675645C7372635C736675645F73AC
:104280006664702E63000000844C00087CB5044610
:104290000D460520019054B9104811A312A24FF405
:1042A0007071009018A0FFF75BFF00BFFEE755B9E3
:1042B0000A481EA30CA240F2C131009012A0FFF7E1
:1042C0004FFF00BFFEE7012000902B46024601A9E8
:1042D00004F12000666AB0477CBD0000CD480008AC
:1042E000666C61736800000028257329206861737B
:1042F00020617373657274206661696C6564206106
:10430000742025732E0D0A002E2E5C2E2E5C636FFA
:104310006D706F6E656E74735C736675645C7372DA
:10432000635C736675642E630000000073746174CF
:104330007573000001460020034B4B624FF4FA7383
:10434000CB63024A8A637047BD440008A129000874
:104350002DE9FC4104460F469046002504F1200655
:1043600054B91B481BA31DA24FF47E71009023A0DB
:10437000FFF7F6FE00BFFEE76FB150208DF8040096
:10438000002000900346012201A93046D6F804C05F
:10439000E047054604E001212046FFF7A5FD05465C
:1043A00075B901208DF804008DF80580002000907B
:1043B0000346022201A93046D6F804C0E04705466C
:1043C00015B117A0FFF7F4FE2846BDE8FC810000F8
:1043D000FF480008666C6173680000002825732997
:1043E0002068617320617373657274206661696C03
:1043F00065642061742025732E0D0A002E2E5C2E1C
:104400002E5C636F6D706F6E656E74735C73667532
:10441000645C7372635C736675642E6300000000F5
:104420004572726F723A2057726974655F73746176
:10443000747573207265676973746572206661694B
:104440006C65642E0D0A000038B50446002554B989
:10445000064807A308A24FF4BE7100900EA0FFF714
:104460007FFE00BFFEE7284638BD00003A4800083E
:10447000666C6173680000002825732920686173E9
:1044800020617373657274206661696C6564206174
:10449000742025732E0D0A002E2E5C2E2E5C636F69
:1044A0006D706F6E656E74735C736675645C737249
:1044B000635C736675642E63000000002DE9F047AD
:1044C00082460C4615461E46089F4FF00008002104
:1044D0000846FEF75BFBA1463B4632462946484666
:1044E000FEF7E0FB08B14FF0020801210020FEF7C3
:1044F0004DFB4046BDE8F087704701464868C0F371
:10450000080070472DE9FC4104460025E76B54B9CB
:10451000164817A318A240F2CB3100901EA0FFF757
:104520001FFE00BFFEE713E001A92046FFF7AEFE25
:1045300005462DB99DF8040000F0010000B908E01F
:10454000A66B0FB9042504E006B1B0477F1E00BF7B
:10455000EAE700BF25B99DF8040000F0010010B1A2
:1045600016A0FFF725FE2846BDE8FC81DE480008BE
:10457000666C6173680000002825732920686173E8
:1045800020617373657274206661696C6564206173
:10459000742025732E0D0A002E2E5C2E2E5C636F68
:1045A0006D706F6E656E74735C736675645C737248
:1045B000635C736675642E63000000004572726F61
:1045C000723A20466C617368207761697420627565
:1045D00073792068617320616E206572726F722E2C
:1045E0000D0A0000184C000801000000204C0008D3
:1045F00004000000644B00081C000000F04B0008A1
:104600001F000000084C0008200000003C4B000880
:1046100037000000104C000862000000F84B000852
:1046200089000000804B00088C000000004C00084E
:10463000A1000000E84B0008AD000000884B000816
:10464000BF000000DC4B0008C8000000504B000811
:10465000D5000000D44B0008EF000000284C0008F3
:10466000C2000000444B00081F260000000020008C
:104670000A00000000020000810000008C4B0008CE
:10468000EF401300000008000100000000100000CF
:1046900020000000B04B0008EF4015000000200093
:1046A000010000000010000020000000984B0008EE
:1046B000EF40160000004000010000000010000064
:1046C00020000000A44B0008EF401700000080000D
:1046D000010000000010000020000000BC4B00089A
:1046E000EF40180000000001010000000010000071
:1046F00020000000C84B0008EF4019000000000235
:10470000010000000010000020000000244B000801
:10471000BF2541000000200006000000001000003E
:1047200020000000F04A0008202016000000400091
:104730000100000000000100D8000000E04A00086D
:104740002020140000001000010000000000010003
:10475000D8000000D04A0008202013000000080004
:104760000100000000000100D8000000004B00081C
:104770001C30160000004000010000000010000086
:10478000200000000C4B0008C8401700000080000B
:10479000010000000010000020000000304B000865
:1047A000C8401500000020000100000000100000BB
:1047B00020000000584B00080140150000002000B8
:1047C000010000000010000020000000684B0008FD
:1047D0000102150000004000010000000010000070
:1047E00020000000D84A00083730140000001000F4
:1047F000010000000010000020000000F84A00083E
:104800008C201300000008000600000000100000CB
:1048100020000000184B0008BF25410000002000C8
:1048200006000000001000002000000068617264B3
:10483000776172655F696E697400736F6674776122
:1048400072655F696E697400736675645F72656135
:104850006400736675645F636869705F6572617335
:104860006500736675645F6572617365007061678A
:10487000653235365F6F725F315F627974655F777D
:1048800072697465006161695F777269746500724D
:104890006573657400726561645F6A656465635F12
:1048A0006964007365745F77726974655F656E61D2
:1048B000626C6564007365745F345F627974655F10
:1048C000616464726573735F6D6F646500736675B0
:1048D000645F726561645F7374617475730077619E
:1048E00069745F62757379006D616B655F61647295
:1048F0006573735F627974655F6172726179007369
:104900006675645F77726974655F737461747573DB
:1049100000736675645F726561645F7366647000DE
:10492000726561645F736664705F68656164657217
:1049300000726561645F62617369635F6865616489
:10494000657200726561645F62617369635F74615F
:10495000626C6500726561645F736664705F646158
:10496000746100736675645F736664705F67657415
:104970005F7375697461626C655F6572617365729E
:1049800000000000000801401000000001000000CD
:1049900000000000020000000008014020000000AC
:1049A00002000000000000000300000000080140B9
:1049B00040000000000000000000000003000000B4
:1049C000000801408000000002000000000000001C
:1049D0000300000000100140100000000100000072
:1049E0000000000002000000001001400010000064
:1049F000020000000000000002000000001401405E
:104A000004000000000000000000000002000000A0
:104A1000000000000000000001020304060708096E
:104A20000000000001020304596F752063616E20CD
:104A300067657420746865206C6174657374207692
:104A4000657273696F6E206F6E2068747470733A4C
:104A50002F2F6769746875622E636F6D2F61726D99
:104A6000696E6B2F53465544202E0D0A000000003E
:104A700054686520666C6173682064657669636557
:104A8000206D616E7566616374757265722049444C
:104A9000206973203078253032582C206D656D6F79
:104AA00072792074797065204944206973203078C8
:104AB000253032582C206361706163697479204914
:104AC00044206973203078253032582E0D0A0000BA
:104AD0004D323550343000004132354C30383000E2
:104AE0004D3235503830000053504931000000003D
:104AF0004D323550333200004632354C30303400C0
:104B0000454E3235513332420000000047443235C1
:104B1000513634420000000050435432355646307E
:104B20003136420053535432355646303136420006
:104B3000474432355131364200000000414D49436F
:104B40000000000041543435444231363145000004
:104B50004953534900000000533235464C32313638
:104B60004B000000454F4E00533235464C30333237
:104B700050000000474432355131364354000000A4
:104B800045534D54000000005353540057323551E3
:104B9000343042560000000057323551333242560D
:104BA00000000000573235513634425600000000F4
:104BB00057323551313642560000000057323551D8
:104BC00031323842560000005732355132353646C0
:104BD0005600000057696E626F6E64004769676136
:104BE00044657669636500004879756E64616900A3
:104BF00041746D656C000000496E74656C000000C6
:104C0000467564616E0000004D6963726F6E00004E
:104C100053616E796F0000004379707265737300A1
:104C200046756A69747375004D6963726F6E697851
:104C3000000000004572726F723A20436865636B32
:104C40002053464450207369676E61747572652005
:104C50006572726F722E2049742773206D7573749C
:104C60002062652035303434343635336828275394
:104C700027202746272027442720275027292E0D85
:104C80000A0000005761726E696E673A20526561D2
:104C900064205346445020706172616D6574657282
:104CA0002068656164657220696E666F726D6174FB
:104CB000696F6E206661696C65642E20546865209A
:104CC0002573206973206E6F7420737570706F7216
:104CD00074204A4544454320534644502E0D0A0053
:104CE00034204B42204572617365206973207375CF
:104CF00070706F72746564207468726F7567686F26
:104D0000757420746865206465766963652E204338
:104D10006F6D6D616E642069732030782530325874
:104D20002E0D0A00546865207461626C6520696408
:104D30002069732025642C20726576657273696F13
:104D40006E206973205625642E25642C206C656EB8
:104D50006774682069732025642C20706172616D0E
:104D600065746572207461626C6520706F696E7421
:104D700065722069732030782530366C582E0D0A04
:104D8000000000004572726F723A20546865206618
:104D90006C61736820636170616369747920697301
:104DA00020677261746572207468616E20333220EE
:104DB00047622F203420474221204E6F74205375C4
:104DC00070706F727465642E0D0A00004572726F08
:104DD000723A205468697320726576657273696FE0
:104DE0006E285625642E256429204A4544454320D3
:104DF000626173696320666C6173682070617261BF
:104E00006D657465722068656164657220697320E0
:104E10006E6F7420737570706F727465642E0D0AF6
:104E200000000000426C6F636B2050726F7465630A
:104E300074206269747320696E20646576696365A5
:104E40002773207374617475732072656769737456
:104E500065722061726520736F6C656C7920766F66
:104E60006C6174696C652E0D0A000000466C6173FC
:104E7000682064657669636520726571756972651D
:104E80007320696E737472756374696F6E20353048
:104E90006820617320746865207772697465206585
:104EA0006E61626C65207072696F7220746F207021
:104EB0006572666F726D696E67206120766F6C61D6
:104EC00074696C6520777269746520746F207468EA
:104ED0006520737461747573207265676973746596
:104EE000722E0D0A00000000466C61736820646534
:104EF0007669636520726571756972657320696E84
:104F0000737472756374696F6E20303668206173D4
:104F10002074686520777269746520656E61626CC3
:104F200065207072696F7220746F20706572666F91
:104F3000726D696E67206120766F6C6174696C6553
:104F400020777269746520746F20746865207374AB
:104F5000617475732072656769737465722E0D0ACA
:104F6000000000004572726F723A20546865204A52
:104F70004544454320626173696320666C617368D0
:104F800020706172616D65746572207461626C6518
:104F9000206C656E67746820286E6F7720697320B7
:104FA000256429206572726F722E0D0A00000000C0
:104FB000D04F00080000002094000000D820000816
:104FC00064500008940000209C0D0000E8200008B8
:104FD000744B00080000000000000000000000000A
:104FE00000000000000000000000000000000000C1
:104FF000E84A000800000000000000000000000077
:1050000000000000000000000000000000000000A0
:105010000000000000000000000000000000000090
:105020000000000000000000000000000000000080
:105030000000000000000000000000000000000070
:105040000000000000000000000000000000000060
:10505000100000000100000000A24A04000000004F
:04506000000000004C
:0400000508000131BD
:00000001FF
